{
  "contractName": "payMusician",
  "abi": [
    {
      "constant": true,
      "inputs": [
        {
          "name": "",
          "type": "string"
        }
      ],
      "name": "Projects",
      "outputs": [
        {
          "name": "exists",
          "type": "uint8"
        },
        {
          "name": "name",
          "type": "string"
        },
        {
          "name": "hash",
          "type": "string"
        },
        {
          "name": "onwer",
          "type": "address"
        }
      ],
      "payable": false,
      "stateMutability": "view",
      "type": "function"
    },
    {
      "anonymous": false,
      "inputs": [
        {
          "indexed": true,
          "name": "hash",
          "type": "string"
        },
        {
          "indexed": true,
          "name": "owner",
          "type": "address"
        }
      ],
      "name": "register",
      "type": "event"
    },
    {
      "anonymous": false,
      "inputs": [
        {
          "indexed": true,
          "name": "hash",
          "type": "string"
        },
        {
          "indexed": true,
          "name": "payee",
          "type": "address"
        }
      ],
      "name": "pay",
      "type": "event"
    },
    {
      "constant": false,
      "inputs": [
        {
          "name": "name",
          "type": "string"
        },
        {
          "name": "hash",
          "type": "string"
        },
        {
          "name": "collaborators",
          "type": "address[]"
        }
      ],
      "name": "addProject",
      "outputs": [],
      "payable": false,
      "stateMutability": "nonpayable",
      "type": "function"
    },
    {
      "constant": false,
      "inputs": [
        {
          "name": "hash",
          "type": "string"
        }
      ],
      "name": "payProject",
      "outputs": [],
      "payable": true,
      "stateMutability": "payable",
      "type": "function"
    },
    {
      "constant": true,
      "inputs": [
        {
          "name": "hash",
          "type": "string"
        }
      ],
      "name": "getProject",
      "outputs": [
        {
          "name": "",
          "type": "address[]"
        }
      ],
      "payable": false,
      "stateMutability": "view",
      "type": "function"
    }
  ],
  "bytecode": "0x608060405234801561001057600080fd5b5061113c806100206000396000f3fe60806040526004361061003f5760003560e01c80634fa691e214610044578063905a86481461016157806392cba8141461034e578063ea7878bf14610541575b600080fd5b34801561005057600080fd5b5061010a6004803603602081101561006757600080fd5b810190808035906020019064010000000081111561008457600080fd5b82018360208201111561009657600080fd5b803590602001918460018302840111640100000000831117156100b857600080fd5b91908080601f016020809104026020016040519081016040528093929190818152602001838380828437600081840152601f19601f8201169050808301925050505050505091929192905050506105fc565b6040518080602001828103825283818151815260200191508051906020019060200280838360005b8381101561014d578082015181840152602081019050610132565b505050509050019250505060405180910390f35b34801561016d57600080fd5b506102276004803603602081101561018457600080fd5b81019080803590602001906401000000008111156101a157600080fd5b8201836020820111156101b357600080fd5b803590602001918460018302840111640100000000831117156101d557600080fd5b91908080601f016020809104026020016040519081016040528093929190818152602001838380828437600081840152601f19601f82011690508083019250505050505050919291929050505061077f565b604051808560ff1660ff16815260200180602001806020018473ffffffffffffffffffffffffffffffffffffffff1673ffffffffffffffffffffffffffffffffffffffff168152602001838103835286818151815260200191508051906020019080838360005b838110156102a957808201518184015260208101905061028e565b50505050905090810190601f1680156102d65780820380516001836020036101000a031916815260200191505b50838103825285818151815260200191508051906020019080838360005b8381101561030f5780820151818401526020810190506102f4565b50505050905090810190601f16801561033c5780820380516001836020036101000a031916815260200191505b50965050505050505060405180910390f35b34801561035a57600080fd5b5061053f6004803603606081101561037157600080fd5b810190808035906020019064010000000081111561038e57600080fd5b8201836020820111156103a057600080fd5b803590602001918460018302840111640100000000831117156103c257600080fd5b91908080601f016020809104026020016040519081016040528093929190818152602001838380828437600081840152601f19601f8201169050808301925050505050505091929192908035906020019064010000000081111561042557600080fd5b82018360208201111561043757600080fd5b8035906020019184600183028401116401000000008311171561045957600080fd5b91908080601f016020809104026020016040519081016040528093929190818152602001838380828437600081840152601f19601f820116905080830192505050505050509192919290803590602001906401000000008111156104bc57600080fd5b8201836020820111156104ce57600080fd5b803590602001918460208302840111640100000000831117156104f057600080fd5b919080806020026020016040519081016040528093929190818152602001838360200280828437600081840152601f19601f820116905080830192505050505050509192919290505050610922565b005b6105fa6004803603602081101561055757600080fd5b810190808035906020019064010000000081111561057457600080fd5b82018360208201111561058657600080fd5b803590602001918460018302840111640100000000831117156105a857600080fd5b91908080601f016020809104026020016040519081016040528093929190818152602001838380828437600081840152601f19601f820116905080830192505050505050509192919290505050610b43565b005b606060016000836040518082805190602001908083835b602083106106365780518252602082019150602081019050602083039250610613565b6001836020036101000a038019825116818451168082178552505050505050905001915050908152602001604051809103902060000160009054906101000a900460ff1660ff161461068757600080fd5b6000826040518082805190602001908083835b602083106106bd578051825260208201915060208101905060208303925061069a565b6001836020036101000a038019825116818451168082178552505050505050905001915050908152602001604051809103902060040180548060200260200160405190810160405280929190818152602001828054801561077357602002820191906000526020600020905b8160009054906101000a900473ffffffffffffffffffffffffffffffffffffffff1673ffffffffffffffffffffffffffffffffffffffff1681526020019060010190808311610729575b50505050509050919050565b6000818051602081018201805184825260208301602085012081835280955050505050506000915090508060000160009054906101000a900460ff1690806001018054600181600116156101000203166002900480601f0160208091040260200160405190810160405280929190818152602001828054600181600116156101000203166002900480156108545780601f1061082957610100808354040283529160200191610854565b820191906000526020600020905b81548152906001019060200180831161083757829003601f168201915b505050505090806002018054600181600116156101000203166002900480601f0160208091040260200160405190810160405280929190818152602001828054600181600116156101000203166002900480156108f25780601f106108c7576101008083540402835291602001916108f2565b820191906000526020600020905b8154815290600101906020018083116108d557829003601f168201915b5050505050908060030160009054906101000a900473ffffffffffffffffffffffffffffffffffffffff16905084565b61092a610f56565b6040518060a00160405280600160ff1681526020018581526020018481526020013373ffffffffffffffffffffffffffffffffffffffff168152602001838152509050806000846040518082805190602001908083835b602083106109a45780518252602082019150602081019050602083039250610981565b6001836020036101000a038019825116818451168082178552505050505050905001915050908152602001604051809103902060008201518160000160006101000a81548160ff021916908360ff1602179055506020820151816001019080519060200190610a14929190610f9e565b506040820151816002019080519060200190610a31929190610f9e565b5060608201518160030160006101000a81548173ffffffffffffffffffffffffffffffffffffffff021916908373ffffffffffffffffffffffffffffffffffffffff1602179055506080820151816004019080519060200190610a9592919061101e565b509050503373ffffffffffffffffffffffffffffffffffffffff16836040518082805190602001908083835b60208310610ae45780518252602082019150602081019050602083039250610ac1565b6001836020036101000a03801982511681845116808217855250505050505090500191505060405180910390207f1e59c52994c66d721689438dd975601abb818ca4ab4caff05b27a26922cf59e060405160405180910390a350505050565b610b4b610f56565b6000826040518082805190602001908083835b60208310610b815780518252602082019150602081019050602083039250610b5e565b6001836020036101000a03801982511681845116808217855250505050505090500191505090815260200160405180910390206040518060a00160405290816000820160009054906101000a900460ff1660ff1660ff168152602001600182018054600181600116156101000203166002900480601f016020809104026020016040519081016040528092919081815260200182805460018160011615610100020316600290048015610c755780601f10610c4a57610100808354040283529160200191610c75565b820191906000526020600020905b815481529060010190602001808311610c5857829003601f168201915b50505050508152602001600282018054600181600116156101000203166002900480601f016020809104026020016040519081016040528092919081815260200182805460018160011615610100020316600290048015610d175780601f10610cec57610100808354040283529160200191610d17565b820191906000526020600020905b815481529060010190602001808311610cfa57829003601f168201915b505050505081526020016003820160009054906101000a900473ffffffffffffffffffffffffffffffffffffffff1673ffffffffffffffffffffffffffffffffffffffff1673ffffffffffffffffffffffffffffffffffffffff16815260200160048201805480602002602001604051908101604052809291908181526020018280548015610dfb57602002820191906000526020600020905b8160009054906101000a900473ffffffffffffffffffffffffffffffffffffffff1673ffffffffffffffffffffffffffffffffffffffff1681526020019060010190808311610db1575b50505050508152505090506001816000015160ff1614610e1a57600080fd5b60003490506000826080015151905060008090505b81811015610eab5783608001518181518110610e4757fe5b602002602001015173ffffffffffffffffffffffffffffffffffffffff166108fc838581610e7157fe5b049081150290604051600060405180830381858888f19350505050158015610e9d573d6000803e3d6000fd5b508080600101915050610e2f565b503373ffffffffffffffffffffffffffffffffffffffff16846040518082805190602001908083835b60208310610ef75780518252602082019150602081019050602083039250610ed4565b6001836020036101000a03801982511681845116808217855250505050505090500191505060405180910390207fa5a4fe4c8e50f812475c6e6e1a72f2fee0e4ff748fc1177034a33a85b85650e360405160405180910390a350505050565b6040518060a00160405280600060ff1681526020016060815260200160608152602001600073ffffffffffffffffffffffffffffffffffffffff168152602001606081525090565b828054600181600116156101000203166002900490600052602060002090601f016020900481019282601f10610fdf57805160ff191683800117855561100d565b8280016001018555821561100d579182015b8281111561100c578251825591602001919060010190610ff1565b5b50905061101a91906110a8565b5090565b828054828255906000526020600020908101928215611097579160200282015b828111156110965782518260006101000a81548173ffffffffffffffffffffffffffffffffffffffff021916908373ffffffffffffffffffffffffffffffffffffffff1602179055509160200191906001019061103e565b5b5090506110a491906110cd565b5090565b6110ca91905b808211156110c65760008160009055506001016110ae565b5090565b90565b61110d91905b8082111561110957600081816101000a81549073ffffffffffffffffffffffffffffffffffffffff0219169055506001016110d3565b5090565b9056fea165627a7a7230582005540d82bdb769229b17dfda90528578c5fabc12c552802e4b6dc81015b0553b0029",
  "source": "pragma solidity >=0.4.0 <0.7.0;\n\ncontract payMusician {\n    struct Project{\n        uint8 exists;\n        string name;\n        string hash;\n        address onwer;\n        address payable[] collaborators;\n    }\n\n    mapping(string=>Project) public Projects;\n\n    event register(string indexed hash, address indexed owner);\n    event pay(string indexed hash, address indexed payee);\n    \n    function addProject(string memory name, string memory hash, address payable[] memory collaborators) public {\n        Project memory newProject = Project(1, name, hash, msg.sender, collaborators);\n        Projects[hash] = newProject;\n        emit register(hash, msg.sender);\n    }\n\n    function payProject(string memory hash) public payable{\n        Project memory currProject = Projects[hash];\n        require(currProject.exists == 1);\n        uint total = msg.value;\n        uint collaboratorsCount = currProject.collaborators.length;\n        for (uint i=0; i < collaboratorsCount; i++) {\n            currProject.collaborators[i].transfer(total / collaboratorsCount);\n        }\n        emit pay(hash, msg.sender);\n    }\n    \n    function getProject(string memory hash) public view returns(address payable[] memory) {\n        require(Projects[hash].exists == 1);\n        return Projects[hash].collaborators;\n    }\n}\n",
  "sourcePath": "/Users/shresthagrawal/Desktop/hackathon/JacobsHack/wallet/contracts/payMusician.sol",
  "compiler": {
    "name": "solc",
    "version": "0.5.8+commit.23d335f2.Emscripten.clang"
  },
  "schemaVersion": "3.0.11",
  "updatedAt": "2019-11-09T15:06:36.940Z",
  "devdoc": {
    "methods": {}
  },
  "userdoc": {
    "methods": {}
  }
}