{
  "contractName": "payMusician",
  "abi": [
    {
      "constant": true,
      "inputs": [
        {
          "name": "",
          "type": "string"
        }
      ],
      "name": "Projects",
      "outputs": [
        {
          "name": "exists",
          "type": "uint8"
        },
        {
          "name": "name",
          "type": "string"
        },
        {
          "name": "hash",
          "type": "string"
        },
        {
          "name": "onwer",
          "type": "address"
        }
      ],
      "payable": false,
      "stateMutability": "view",
      "type": "function"
    },
    {
      "constant": true,
      "inputs": [
        {
          "name": "",
          "type": "string"
        }
      ],
      "name": "Hash",
      "outputs": [
        {
          "name": "",
          "type": "string"
        }
      ],
      "payable": false,
      "stateMutability": "view",
      "type": "function"
    },
    {
      "anonymous": false,
      "inputs": [
        {
          "indexed": true,
          "name": "hash",
          "type": "string"
        },
        {
          "indexed": true,
          "name": "owner",
          "type": "address"
        }
      ],
      "name": "register",
      "type": "event"
    },
    {
      "anonymous": false,
      "inputs": [
        {
          "indexed": true,
          "name": "owner",
          "type": "address"
        },
        {
          "indexed": false,
          "name": "payee",
          "type": "address"
        },
        {
          "indexed": false,
          "name": "amount",
          "type": "uint256"
        }
      ],
      "name": "pay",
      "type": "event"
    },
    {
      "constant": false,
      "inputs": [
        {
          "name": "name",
          "type": "string"
        },
        {
          "name": "hash",
          "type": "string"
        },
        {
          "name": "collaborators",
          "type": "address[]"
        }
      ],
      "name": "addProject",
      "outputs": [],
      "payable": false,
      "stateMutability": "nonpayable",
      "type": "function"
    },
    {
      "constant": false,
      "inputs": [
        {
          "name": "hash",
          "type": "string"
        }
      ],
      "name": "payProject",
      "outputs": [],
      "payable": true,
      "stateMutability": "payable",
      "type": "function"
    },
    {
      "constant": true,
      "inputs": [
        {
          "name": "hash",
          "type": "string"
        }
      ],
      "name": "getProject",
      "outputs": [
        {
          "name": "",
          "type": "address[]"
        }
      ],
      "payable": false,
      "stateMutability": "view",
      "type": "function"
    },
    {
      "constant": true,
      "inputs": [
        {
          "name": "name",
          "type": "string"
        }
      ],
      "name": "getHash",
      "outputs": [
        {
          "name": "hash",
          "type": "string"
        }
      ],
      "payable": false,
      "stateMutability": "view",
      "type": "function"
    }
  ],
  "bytecode": "0x608060405234801561001057600080fd5b506116a1806100206000396000f3fe6080604052600436106100555760003560e01c80634fa691e21461005a5780635b6beeb914610177578063905a8648146102b857806392cba814146104a5578063bc780a0c14610698578063ea7878bf146107d9575b600080fd5b34801561006657600080fd5b506101206004803603602081101561007d57600080fd5b810190808035906020019064010000000081111561009a57600080fd5b8201836020820111156100ac57600080fd5b803590602001918460018302840111640100000000831117156100ce57600080fd5b91908080601f016020809104026020016040519081016040528093929190818152602001838380828437600081840152601f19601f820116905080830192505050505050509192919290505050610894565b6040518080602001828103825283818151815260200191508051906020019060200280838360005b83811015610163578082015181840152602081019050610148565b505050509050019250505060405180910390f35b34801561018357600080fd5b5061023d6004803603602081101561019a57600080fd5b81019080803590602001906401000000008111156101b757600080fd5b8201836020820111156101c957600080fd5b803590602001918460018302840111640100000000831117156101eb57600080fd5b91908080601f016020809104026020016040519081016040528093929190818152602001838380828437600081840152601f19601f820116905080830192505050505050509192919290505050610a17565b6040518080602001828103825283818151815260200191508051906020019080838360005b8381101561027d578082015181840152602081019050610262565b50505050905090810190601f1680156102aa5780820380516001836020036101000a031916815260200191505b509250505060405180910390f35b3480156102c457600080fd5b5061037e600480360360208110156102db57600080fd5b81019080803590602001906401000000008111156102f857600080fd5b82018360208201111561030a57600080fd5b8035906020019184600183028401116401000000008311171561032c57600080fd5b91908080601f016020809104026020016040519081016040528093929190818152602001838380828437600081840152601f19601f820116905080830192505050505050509192919290505050610b22565b604051808560ff1660ff16815260200180602001806020018473ffffffffffffffffffffffffffffffffffffffff1673ffffffffffffffffffffffffffffffffffffffff168152602001838103835286818151815260200191508051906020019080838360005b838110156104005780820151818401526020810190506103e5565b50505050905090810190601f16801561042d5780820380516001836020036101000a031916815260200191505b50838103825285818151815260200191508051906020019080838360005b8381101561046657808201518184015260208101905061044b565b50505050905090810190601f1680156104935780820380516001836020036101000a031916815260200191505b50965050505050505060405180910390f35b3480156104b157600080fd5b50610696600480360360608110156104c857600080fd5b81019080803590602001906401000000008111156104e557600080fd5b8201836020820111156104f757600080fd5b8035906020019184600183028401116401000000008311171561051957600080fd5b91908080601f016020809104026020016040519081016040528093929190818152602001838380828437600081840152601f19601f8201169050808301925050505050505091929192908035906020019064010000000081111561057c57600080fd5b82018360208201111561058e57600080fd5b803590602001918460018302840111640100000000831117156105b057600080fd5b91908080601f016020809104026020016040519081016040528093929190818152602001838380828437600081840152601f19601f8201169050808301925050505050505091929192908035906020019064010000000081111561061357600080fd5b82018360208201111561062557600080fd5b8035906020019184602083028401116401000000008311171561064757600080fd5b919080806020026020016040519081016040528093929190818152602001838360200280828437600081840152601f19601f820116905080830192505050505050509192919290505050610cc5565b005b3480156106a457600080fd5b5061075e600480360360208110156106bb57600080fd5b81019080803590602001906401000000008111156106d857600080fd5b8201836020820111156106ea57600080fd5b8035906020019184600183028401116401000000008311171561070c57600080fd5b91908080601f016020809104026020016040519081016040528093929190818152602001838380828437600081840152601f19601f820116905080830192505050505050509192919290505050610f64565b6040518080602001828103825283818151815260200191508051906020019080838360005b8381101561079e578082015181840152602081019050610783565b50505050905090810190601f1680156107cb5780820380516001836020036101000a031916815260200191505b509250505060405180910390f35b610892600480360360208110156107ef57600080fd5b810190808035906020019064010000000081111561080c57600080fd5b82018360208201111561081e57600080fd5b8035906020019184600183028401116401000000008311171561084057600080fd5b91908080601f016020809104026020016040519081016040528093929190818152602001838380828437600081840152601f19601f82011690508083019250505050505050919291929050505061102a565b005b606060016000836040518082805190602001908083835b602083106108ce57805182526020820191506020810190506020830392506108ab565b6001836020036101000a038019825116818451168082178552505050505050905001915050908152602001604051809103902060000160009054906101000a900460ff1660ff161461091f57600080fd5b6000826040518082805190602001908083835b602083106109555780518252602082019150602081019050602083039250610932565b6001836020036101000a0380198251168184511680821785525050505050509050019150509081526020016040518091039020600401805480602002602001604051908101604052809291908181526020018280548015610a0b57602002820191906000526020600020905b8160009054906101000a900473ffffffffffffffffffffffffffffffffffffffff1673ffffffffffffffffffffffffffffffffffffffff16815260200190600101908083116109c1575b50505050509050919050565b60606001826040518082805190602001908083835b60208310610a4f5780518252602082019150602081019050602083039250610a2c565b6001836020036101000a03801982511681845116808217855250505050505090500191505090815260200160405180910390208054600181600116156101000203166002900480601f016020809104026020016040519081016040528092919081815260200182805460018160011615610100020316600290048015610b165780601f10610aeb57610100808354040283529160200191610b16565b820191906000526020600020905b815481529060010190602001808311610af957829003601f168201915b50505050509050919050565b6000818051602081018201805184825260208301602085012081835280955050505050506000915090508060000160009054906101000a900460ff1690806001018054600181600116156101000203166002900480601f016020809104026020016040519081016040528092919081815260200182805460018160011615610100020316600290048015610bf75780601f10610bcc57610100808354040283529160200191610bf7565b820191906000526020600020905b815481529060010190602001808311610bda57829003601f168201915b505050505090806002018054600181600116156101000203166002900480601f016020809104026020016040519081016040528092919081815260200182805460018160011615610100020316600290048015610c955780601f10610c6a57610100808354040283529160200191610c95565b820191906000526020600020905b815481529060010190602001808311610c7857829003601f168201915b5050505050908060030160009054906101000a900473ffffffffffffffffffffffffffffffffffffffff16905084565b610ccd61143b565b6040518060a00160405280600160ff1681526020018581526020018481526020013373ffffffffffffffffffffffffffffffffffffffff168152602001838152509050806000846040518082805190602001908083835b60208310610d475780518252602082019150602081019050602083039250610d24565b6001836020036101000a038019825116818451168082178552505050505050905001915050908152602001604051809103902060008201518160000160006101000a81548160ff021916908360ff1602179055506020820151816001019080519060200190610db7929190611483565b506040820151816002019080519060200190610dd4929190611483565b5060608201518160030160006101000a81548173ffffffffffffffffffffffffffffffffffffffff021916908373ffffffffffffffffffffffffffffffffffffffff1602179055506080820151816004019080519060200190610e38929190611503565b50905050826001856040518082805190602001908083835b60208310610e735780518252602082019150602081019050602083039250610e50565b6001836020036101000a03801982511681845116808217855250505050505090500191505090815260200160405180910390209080519060200190610eb992919061158d565b503373ffffffffffffffffffffffffffffffffffffffff16836040518082805190602001908083835b60208310610f055780518252602082019150602081019050602083039250610ee2565b6001836020036101000a03801982511681845116808217855250505050505090500191505060405180910390207f1e59c52994c66d721689438dd975601abb818ca4ab4caff05b27a26922cf59e060405160405180910390a350505050565b6001818051602081018201805184825260208301602085012081835280955050505050506000915090508054600181600116156101000203166002900480601f0160208091040260200160405190810160405280929190818152602001828054600181600116156101000203166002900480156110225780601f10610ff757610100808354040283529160200191611022565b820191906000526020600020905b81548152906001019060200180831161100557829003601f168201915b505050505081565b61103261143b565b6000826040518082805190602001908083835b602083106110685780518252602082019150602081019050602083039250611045565b6001836020036101000a03801982511681845116808217855250505050505090500191505090815260200160405180910390206040518060a00160405290816000820160009054906101000a900460ff1660ff1660ff168152602001600182018054600181600116156101000203166002900480601f01602080910402602001604051908101604052809291908181526020018280546001816001161561010002031660029004801561115c5780601f106111315761010080835404028352916020019161115c565b820191906000526020600020905b81548152906001019060200180831161113f57829003601f168201915b50505050508152602001600282018054600181600116156101000203166002900480601f0160208091040260200160405190810160405280929190818152602001828054600181600116156101000203166002900480156111fe5780601f106111d3576101008083540402835291602001916111fe565b820191906000526020600020905b8154815290600101906020018083116111e157829003601f168201915b505050505081526020016003820160009054906101000a900473ffffffffffffffffffffffffffffffffffffffff1673ffffffffffffffffffffffffffffffffffffffff1673ffffffffffffffffffffffffffffffffffffffff168152602001600482018054806020026020016040519081016040528092919081815260200182805480156112e257602002820191906000526020600020905b8160009054906101000a900473ffffffffffffffffffffffffffffffffffffffff1673ffffffffffffffffffffffffffffffffffffffff1681526020019060010190808311611298575b50505050508152505090506001816000015160ff161461130157600080fd5b60003490506000826080015151905060008090505b81811015611434578360800151818151811061132e57fe5b602002602001015173ffffffffffffffffffffffffffffffffffffffff166108fc83858161135857fe5b049081150290604051600060405180830381858888f19350505050158015611384573d6000803e3d6000fd5b508360800151818151811061139557fe5b602002602001015173ffffffffffffffffffffffffffffffffffffffff167fb3d7618862b5dac527ca0838852329cdfe3b6ae3b572a71dcb2689703be2c451338486816113de57fe5b04604051808373ffffffffffffffffffffffffffffffffffffffff1673ffffffffffffffffffffffffffffffffffffffff1681526020018281526020019250505060405180910390a28080600101915050611316565b5050505050565b6040518060a00160405280600060ff1681526020016060815260200160608152602001600073ffffffffffffffffffffffffffffffffffffffff168152602001606081525090565b828054600181600116156101000203166002900490600052602060002090601f016020900481019282601f106114c457805160ff19168380011785556114f2565b828001600101855582156114f2579182015b828111156114f15782518255916020019190600101906114d6565b5b5090506114ff919061160d565b5090565b82805482825590600052602060002090810192821561157c579160200282015b8281111561157b5782518260006101000a81548173ffffffffffffffffffffffffffffffffffffffff021916908373ffffffffffffffffffffffffffffffffffffffff16021790555091602001919060010190611523565b5b5090506115899190611632565b5090565b828054600181600116156101000203166002900490600052602060002090601f016020900481019282601f106115ce57805160ff19168380011785556115fc565b828001600101855582156115fc579182015b828111156115fb5782518255916020019190600101906115e0565b5b509050611609919061160d565b5090565b61162f91905b8082111561162b576000816000905550600101611613565b5090565b90565b61167291905b8082111561166e57600081816101000a81549073ffffffffffffffffffffffffffffffffffffffff021916905550600101611638565b5090565b9056fea165627a7a723058206b37237e16c09c41c910d236fa16ee3ad0f7838bbad0ee76dbdbb6cc726e61400029",
  "source": "pragma solidity >=0.4.0 <0.7.0;\n\ncontract payMusician {\n    struct Project{\n        uint8 exists;\n        string name;\n        string hash;\n        address onwer;\n        address payable[] collaborators;\n    }\n\n    mapping(string=>Project) public Projects;\n    mapping(string=>string) public Hash;\n\n    event register(string indexed hash, address indexed owner);\n    event pay(address payable indexed owner, address payee, uint amount);\n    \n    function addProject(string memory name, string memory hash, address payable[] memory collaborators) public {\n        Project memory newProject = Project(1, name, hash, msg.sender, collaborators);\n        Projects[hash] = newProject;\n        Hash[name] = hash;\n        emit register(hash, msg.sender);\n    }\n\n    function payProject(string memory hash) public payable{\n        Project memory currProject = Projects[hash];\n        require(currProject.exists == 1);\n        uint total = msg.value;\n        uint collaboratorsCount = currProject.collaborators.length;\n        for (uint i=0; i < collaboratorsCount; i++) {\n            currProject.collaborators[i].transfer(total / collaboratorsCount);\n            emit pay(currProject.collaborators[i], msg.sender, total / collaboratorsCount);\n        }\n    }\n    \n    function getProject(string memory hash) public view returns(address payable[] memory) {\n        require(Projects[hash].exists == 1);\n        return Projects[hash].collaborators;\n    }\n    \n    function getHash(string memory name) public view returns(string memory hash) {\n        return Hash[name];\n    }\n    \n}\n",
  "sourcePath": "/Users/shresthagrawal/Desktop/hackathon/JacobsHack/wallet/contracts/payMusician.sol",
  "compiler": {
    "name": "solc",
    "version": "0.5.8+commit.23d335f2.Emscripten.clang"
  },
  "schemaVersion": "3.0.11",
  "updatedAt": "2019-11-09T21:17:19.132Z",
  "devdoc": {
    "methods": {}
  },
  "userdoc": {
    "methods": {}
  }
}