{
  "contractName": "payMusician",
  "abi": [
    {
      "constant": true,
      "inputs": [
        {
          "name": "",
          "type": "string"
        }
      ],
      "name": "Projects",
      "outputs": [
        {
          "name": "exists",
          "type": "uint8"
        },
        {
          "name": "name",
          "type": "string"
        },
        {
          "name": "hash",
          "type": "string"
        },
        {
          "name": "onwer",
          "type": "address"
        }
      ],
      "payable": false,
      "stateMutability": "view",
      "type": "function"
    },
    {
      "constant": true,
      "inputs": [
        {
          "name": "",
          "type": "string"
        }
      ],
      "name": "Hash",
      "outputs": [
        {
          "name": "",
          "type": "string"
        }
      ],
      "payable": false,
      "stateMutability": "view",
      "type": "function"
    },
    {
      "anonymous": false,
      "inputs": [
        {
          "indexed": true,
          "name": "hash",
          "type": "string"
        },
        {
          "indexed": true,
          "name": "owner",
          "type": "address"
        }
      ],
      "name": "register",
      "type": "event"
    },
    {
      "anonymous": false,
      "inputs": [
        {
          "indexed": true,
          "name": "owner",
          "type": "address"
        },
        {
          "indexed": false,
          "name": "payee",
          "type": "string"
        },
        {
          "indexed": false,
          "name": "amount",
          "type": "uint256"
        }
      ],
      "name": "pay",
      "type": "event"
    },
    {
      "constant": false,
      "inputs": [
        {
          "name": "name",
          "type": "string"
        },
        {
          "name": "hash",
          "type": "string"
        },
        {
          "name": "collaborators",
          "type": "address[]"
        }
      ],
      "name": "addProject",
      "outputs": [],
      "payable": false,
      "stateMutability": "nonpayable",
      "type": "function"
    },
    {
      "constant": false,
      "inputs": [
        {
          "name": "hash",
          "type": "string"
        },
        {
          "name": "payee",
          "type": "string"
        }
      ],
      "name": "payProject",
      "outputs": [],
      "payable": true,
      "stateMutability": "payable",
      "type": "function"
    },
    {
      "constant": true,
      "inputs": [
        {
          "name": "hash",
          "type": "string"
        }
      ],
      "name": "getProject",
      "outputs": [
        {
          "name": "",
          "type": "address[]"
        }
      ],
      "payable": false,
      "stateMutability": "view",
      "type": "function"
    },
    {
      "constant": true,
      "inputs": [
        {
          "name": "name",
          "type": "string"
        }
      ],
      "name": "getHash",
      "outputs": [
        {
          "name": "hash",
          "type": "string"
        }
      ],
      "payable": false,
      "stateMutability": "view",
      "type": "function"
    }
  ],
  "bytecode": "0x608060405234801561001057600080fd5b50611772806100206000396000f3fe6080604052600436106100555760003560e01c8063248ffdd71461005a5780634fa691e2146101ac5780635b6beeb9146102c9578063905a86481461040a57806392cba814146105f7578063bc780a0c146107ea575b600080fd5b6101aa6004803603604081101561007057600080fd5b810190808035906020019064010000000081111561008d57600080fd5b82018360208201111561009f57600080fd5b803590602001918460018302840111640100000000831117156100c157600080fd5b91908080601f016020809104026020016040519081016040528093929190818152602001838380828437600081840152601f19601f8201169050808301925050505050505091929192908035906020019064010000000081111561012457600080fd5b82018360208201111561013657600080fd5b8035906020019184600183028401116401000000008311171561015857600080fd5b91908080601f016020809104026020016040519081016040528093929190818152602001838380828437600081840152601f19601f82011690508083019250505050505050919291929050505061092b565b005b3480156101b857600080fd5b50610272600480360360208110156101cf57600080fd5b81019080803590602001906401000000008111156101ec57600080fd5b8201836020820111156101fe57600080fd5b8035906020019184600183028401116401000000008311171561022057600080fd5b91908080601f016020809104026020016040519081016040528093929190818152602001838380828437600081840152601f19601f820116905080830192505050505050509192919290505050610d76565b6040518080602001828103825283818151815260200191508051906020019060200280838360005b838110156102b557808201518184015260208101905061029a565b505050509050019250505060405180910390f35b3480156102d557600080fd5b5061038f600480360360208110156102ec57600080fd5b810190808035906020019064010000000081111561030957600080fd5b82018360208201111561031b57600080fd5b8035906020019184600183028401116401000000008311171561033d57600080fd5b91908080601f016020809104026020016040519081016040528093929190818152602001838380828437600081840152601f19601f820116905080830192505050505050509192919290505050610ef9565b6040518080602001828103825283818151815260200191508051906020019080838360005b838110156103cf5780820151818401526020810190506103b4565b50505050905090810190601f1680156103fc5780820380516001836020036101000a031916815260200191505b509250505060405180910390f35b34801561041657600080fd5b506104d06004803603602081101561042d57600080fd5b810190808035906020019064010000000081111561044a57600080fd5b82018360208201111561045c57600080fd5b8035906020019184600183028401116401000000008311171561047e57600080fd5b91908080601f016020809104026020016040519081016040528093929190818152602001838380828437600081840152601f19601f820116905080830192505050505050509192919290505050611004565b604051808560ff1660ff16815260200180602001806020018473ffffffffffffffffffffffffffffffffffffffff1673ffffffffffffffffffffffffffffffffffffffff168152602001838103835286818151815260200191508051906020019080838360005b83811015610552578082015181840152602081019050610537565b50505050905090810190601f16801561057f5780820380516001836020036101000a031916815260200191505b50838103825285818151815260200191508051906020019080838360005b838110156105b857808201518184015260208101905061059d565b50505050905090810190601f1680156105e55780820380516001836020036101000a031916815260200191505b50965050505050505060405180910390f35b34801561060357600080fd5b506107e86004803603606081101561061a57600080fd5b810190808035906020019064010000000081111561063757600080fd5b82018360208201111561064957600080fd5b8035906020019184600183028401116401000000008311171561066b57600080fd5b91908080601f016020809104026020016040519081016040528093929190818152602001838380828437600081840152601f19601f820116905080830192505050505050509192919290803590602001906401000000008111156106ce57600080fd5b8201836020820111156106e057600080fd5b8035906020019184600183028401116401000000008311171561070257600080fd5b91908080601f016020809104026020016040519081016040528093929190818152602001838380828437600081840152601f19601f8201169050808301925050505050505091929192908035906020019064010000000081111561076557600080fd5b82018360208201111561077757600080fd5b8035906020019184602083028401116401000000008311171561079957600080fd5b919080806020026020016040519081016040528093929190818152602001838360200280828437600081840152601f19601f8201169050808301925050505050505091929192905050506111a7565b005b3480156107f657600080fd5b506108b06004803603602081101561080d57600080fd5b810190808035906020019064010000000081111561082a57600080fd5b82018360208201111561083c57600080fd5b8035906020019184600183028401116401000000008311171561085e57600080fd5b91908080601f016020809104026020016040519081016040528093929190818152602001838380828437600081840152601f19601f820116905080830192505050505050509192919290505050611446565b6040518080602001828103825283818151815260200191508051906020019080838360005b838110156108f05780820151818401526020810190506108d5565b50505050905090810190601f16801561091d5780820380516001836020036101000a031916815260200191505b509250505060405180910390f35b61093361150c565b6000836040518082805190602001908083835b602083106109695780518252602082019150602081019050602083039250610946565b6001836020036101000a03801982511681845116808217855250505050505090500191505090815260200160405180910390206040518060a00160405290816000820160009054906101000a900460ff1660ff1660ff168152602001600182018054600181600116156101000203166002900480601f016020809104026020016040519081016040528092919081815260200182805460018160011615610100020316600290048015610a5d5780601f10610a3257610100808354040283529160200191610a5d565b820191906000526020600020905b815481529060010190602001808311610a4057829003601f168201915b50505050508152602001600282018054600181600116156101000203166002900480601f016020809104026020016040519081016040528092919081815260200182805460018160011615610100020316600290048015610aff5780601f10610ad457610100808354040283529160200191610aff565b820191906000526020600020905b815481529060010190602001808311610ae257829003601f168201915b505050505081526020016003820160009054906101000a900473ffffffffffffffffffffffffffffffffffffffff1673ffffffffffffffffffffffffffffffffffffffff1673ffffffffffffffffffffffffffffffffffffffff16815260200160048201805480602002602001604051908101604052809291908181526020018280548015610be357602002820191906000526020600020905b8160009054906101000a900473ffffffffffffffffffffffffffffffffffffffff1673ffffffffffffffffffffffffffffffffffffffff1681526020019060010190808311610b99575b50505050508152505090506001816000015160ff1614610c0257600080fd5b60003490506000826080015151905060008090505b81811015610d6e5783608001518181518110610c2f57fe5b602002602001015173ffffffffffffffffffffffffffffffffffffffff166108fc838581610c5957fe5b049081150290604051600060405180830381858888f19350505050158015610c85573d6000803e3d6000fd5b5083608001518181518110610c9657fe5b602002602001015173ffffffffffffffffffffffffffffffffffffffff167fc962d4a2ddfcfd0c1cb04cf0a70995e9923ef67f2ec51a3c55a9d402705b1ca986848681610cdf57fe5b046040518080602001838152602001828103825284818151815260200191508051906020019080838360005b83811015610d26578082015181840152602081019050610d0b565b50505050905090810190601f168015610d535780820380516001836020036101000a031916815260200191505b50935050505060405180910390a28080600101915050610c17565b505050505050565b606060016000836040518082805190602001908083835b60208310610db05780518252602082019150602081019050602083039250610d8d565b6001836020036101000a038019825116818451168082178552505050505050905001915050908152602001604051809103902060000160009054906101000a900460ff1660ff1614610e0157600080fd5b6000826040518082805190602001908083835b60208310610e375780518252602082019150602081019050602083039250610e14565b6001836020036101000a0380198251168184511680821785525050505050509050019150509081526020016040518091039020600401805480602002602001604051908101604052809291908181526020018280548015610eed57602002820191906000526020600020905b8160009054906101000a900473ffffffffffffffffffffffffffffffffffffffff1673ffffffffffffffffffffffffffffffffffffffff1681526020019060010190808311610ea3575b50505050509050919050565b60606001826040518082805190602001908083835b60208310610f315780518252602082019150602081019050602083039250610f0e565b6001836020036101000a03801982511681845116808217855250505050505090500191505090815260200160405180910390208054600181600116156101000203166002900480601f016020809104026020016040519081016040528092919081815260200182805460018160011615610100020316600290048015610ff85780601f10610fcd57610100808354040283529160200191610ff8565b820191906000526020600020905b815481529060010190602001808311610fdb57829003601f168201915b50505050509050919050565b6000818051602081018201805184825260208301602085012081835280955050505050506000915090508060000160009054906101000a900460ff1690806001018054600181600116156101000203166002900480601f0160208091040260200160405190810160405280929190818152602001828054600181600116156101000203166002900480156110d95780601f106110ae576101008083540402835291602001916110d9565b820191906000526020600020905b8154815290600101906020018083116110bc57829003601f168201915b505050505090806002018054600181600116156101000203166002900480601f0160208091040260200160405190810160405280929190818152602001828054600181600116156101000203166002900480156111775780601f1061114c57610100808354040283529160200191611177565b820191906000526020600020905b81548152906001019060200180831161115a57829003601f168201915b5050505050908060030160009054906101000a900473ffffffffffffffffffffffffffffffffffffffff16905084565b6111af61150c565b6040518060a00160405280600160ff1681526020018581526020018481526020013373ffffffffffffffffffffffffffffffffffffffff168152602001838152509050806000846040518082805190602001908083835b602083106112295780518252602082019150602081019050602083039250611206565b6001836020036101000a038019825116818451168082178552505050505050905001915050908152602001604051809103902060008201518160000160006101000a81548160ff021916908360ff1602179055506020820151816001019080519060200190611299929190611554565b5060408201518160020190805190602001906112b6929190611554565b5060608201518160030160006101000a81548173ffffffffffffffffffffffffffffffffffffffff021916908373ffffffffffffffffffffffffffffffffffffffff160217905550608082015181600401908051906020019061131a9291906115d4565b50905050826001856040518082805190602001908083835b602083106113555780518252602082019150602081019050602083039250611332565b6001836020036101000a0380198251168184511680821785525050505050509050019150509081526020016040518091039020908051906020019061139b92919061165e565b503373ffffffffffffffffffffffffffffffffffffffff16836040518082805190602001908083835b602083106113e757805182526020820191506020810190506020830392506113c4565b6001836020036101000a03801982511681845116808217855250505050505090500191505060405180910390207f1e59c52994c66d721689438dd975601abb818ca4ab4caff05b27a26922cf59e060405160405180910390a350505050565b6001818051602081018201805184825260208301602085012081835280955050505050506000915090508054600181600116156101000203166002900480601f0160208091040260200160405190810160405280929190818152602001828054600181600116156101000203166002900480156115045780601f106114d957610100808354040283529160200191611504565b820191906000526020600020905b8154815290600101906020018083116114e757829003601f168201915b505050505081565b6040518060a00160405280600060ff1681526020016060815260200160608152602001600073ffffffffffffffffffffffffffffffffffffffff168152602001606081525090565b828054600181600116156101000203166002900490600052602060002090601f016020900481019282601f1061159557805160ff19168380011785556115c3565b828001600101855582156115c3579182015b828111156115c25782518255916020019190600101906115a7565b5b5090506115d091906116de565b5090565b82805482825590600052602060002090810192821561164d579160200282015b8281111561164c5782518260006101000a81548173ffffffffffffffffffffffffffffffffffffffff021916908373ffffffffffffffffffffffffffffffffffffffff160217905550916020019190600101906115f4565b5b50905061165a9190611703565b5090565b828054600181600116156101000203166002900490600052602060002090601f016020900481019282601f1061169f57805160ff19168380011785556116cd565b828001600101855582156116cd579182015b828111156116cc5782518255916020019190600101906116b1565b5b5090506116da91906116de565b5090565b61170091905b808211156116fc5760008160009055506001016116e4565b5090565b90565b61174391905b8082111561173f57600081816101000a81549073ffffffffffffffffffffffffffffffffffffffff021916905550600101611709565b5090565b9056fea165627a7a7230582035e368adbe4c1af9e53d83819e6ae59a7a41d108981ebfdfa0bdb0a6c18a2a950029",
  "source": "pragma solidity >=0.4.0 <0.7.0;\n\ncontract payMusician {\n    struct Project{\n        uint8 exists;\n        string name;\n        string hash;\n        address onwer;\n        address payable[] collaborators;\n    }\n\n    mapping(string=>Project) public Projects;\n    mapping(string=>string) public Hash;\n\n    event register(string indexed hash, address indexed owner);\n    event pay(address payable indexed owner, string payee, uint amount);\n    \n    function addProject(string memory name, string memory hash, address payable[] memory collaborators) public {\n        Project memory newProject = Project(1, name, hash, msg.sender, collaborators);\n        Projects[hash] = newProject;\n        Hash[name] = hash;\n        emit register(hash, msg.sender);\n    }\n\n    function payProject(string memory hash, string memory payee) public payable{\n        Project memory currProject = Projects[hash];\n        require(currProject.exists == 1);\n        uint total = msg.value;\n        uint collaboratorsCount = currProject.collaborators.length;\n        for (uint i=0; i < collaboratorsCount; i++) {\n            currProject.collaborators[i].transfer(total / collaboratorsCount);\n            emit pay(currProject.collaborators[i], payee, total / collaboratorsCount);\n        }\n    }\n    \n    function getProject(string memory hash) public view returns(address payable[] memory) {\n        require(Projects[hash].exists == 1);\n        return Projects[hash].collaborators;\n    }\n    \n    function getHash(string memory name) public view returns(string memory hash) {\n        return Hash[name];\n    }\n    \n}\n",
  "sourcePath": "/Users/shresthagrawal/Desktop/hackathon/JacobsHack/wallet/contracts/payMusician.sol",
  "compiler": {
    "name": "solc",
    "version": "0.5.8+commit.23d335f2.Emscripten.clang"
  },
  "schemaVersion": "3.0.11",
  "updatedAt": "2019-11-09T22:17:26.739Z",
  "devdoc": {
    "methods": {}
  },
  "userdoc": {
    "methods": {}
  }
}