{
  "contractName": "erc20",
  "abi": [
    {
      "constant": true,
      "inputs": [
        {
          "name": "",
          "type": "address"
        }
      ],
      "name": "allCompanies",
      "outputs": [
        {
          "name": "exists",
          "type": "uint8"
        },
        {
          "name": "balance",
          "type": "uint256"
        },
        {
          "name": "name",
          "type": "string"
        }
      ],
      "payable": false,
      "stateMutability": "view",
      "type": "function"
    },
    {
      "constant": true,
      "inputs": [
        {
          "name": "",
          "type": "address"
        },
        {
          "name": "",
          "type": "uint256"
        }
      ],
      "name": "companyEmployees",
      "outputs": [
        {
          "name": "",
          "type": "address"
        }
      ],
      "payable": false,
      "stateMutability": "view",
      "type": "function"
    },
    {
      "constant": true,
      "inputs": [],
      "name": "name",
      "outputs": [
        {
          "name": "",
          "type": "string"
        }
      ],
      "payable": false,
      "stateMutability": "view",
      "type": "function"
    },
    {
      "constant": false,
      "inputs": [
        {
          "name": "employeeAddress",
          "type": "address"
        },
        {
          "name": "city",
          "type": "string"
        },
        {
          "name": "priceLimit",
          "type": "uint256"
        },
        {
          "name": "startTime",
          "type": "uint256"
        },
        {
          "name": "endTime",
          "type": "uint256"
        },
        {
          "name": "category",
          "type": "string"
        }
      ],
      "name": "addClaim",
      "outputs": [],
      "payable": false,
      "stateMutability": "nonpayable",
      "type": "function"
    },
    {
      "constant": false,
      "inputs": [],
      "name": "refillAccount",
      "outputs": [],
      "payable": true,
      "stateMutability": "payable",
      "type": "function"
    },
    {
      "constant": true,
      "inputs": [],
      "name": "decimals",
      "outputs": [
        {
          "name": "",
          "type": "uint8"
        }
      ],
      "payable": false,
      "stateMutability": "view",
      "type": "function"
    },
    {
      "constant": true,
      "inputs": [
        {
          "name": "",
          "type": "address"
        }
      ],
      "name": "allEmployees",
      "outputs": [
        {
          "name": "exists",
          "type": "uint8"
        },
        {
          "name": "name",
          "type": "string"
        },
        {
          "name": "homeCity",
          "type": "string"
        },
        {
          "name": "company",
          "type": "address"
        }
      ],
      "payable": false,
      "stateMutability": "view",
      "type": "function"
    },
    {
      "constant": true,
      "inputs": [
        {
          "name": "",
          "type": "address"
        }
      ],
      "name": "allServiceProviders",
      "outputs": [
        {
          "name": "exists",
          "type": "uint256"
        },
        {
          "name": "name",
          "type": "string"
        },
        {
          "name": "category",
          "type": "string"
        },
        {
          "name": "city",
          "type": "string"
        }
      ],
      "payable": false,
      "stateMutability": "view",
      "type": "function"
    },
    {
      "constant": true,
      "inputs": [],
      "name": "getEmployees",
      "outputs": [
        {
          "name": "",
          "type": "address[]"
        }
      ],
      "payable": false,
      "stateMutability": "view",
      "type": "function"
    },
    {
      "constant": false,
      "inputs": [
        {
          "name": "serviceProvider",
          "type": "address"
        },
        {
          "name": "amount",
          "type": "uint256"
        }
      ],
      "name": "payServiceProvider",
      "outputs": [],
      "payable": false,
      "stateMutability": "nonpayable",
      "type": "function"
    },
    {
      "constant": true,
      "inputs": [
        {
          "name": "",
          "type": "address"
        }
      ],
      "name": "allClaims",
      "outputs": [
        {
          "name": "exists",
          "type": "uint8"
        },
        {
          "name": "company",
          "type": "address"
        },
        {
          "name": "budget",
          "type": "uint256"
        },
        {
          "name": "city",
          "type": "string"
        },
        {
          "name": "category",
          "type": "string"
        },
        {
          "name": "startTime",
          "type": "uint256"
        },
        {
          "name": "endTime",
          "type": "uint256"
        }
      ],
      "payable": false,
      "stateMutability": "view",
      "type": "function"
    },
    {
      "constant": true,
      "inputs": [],
      "name": "symbol",
      "outputs": [
        {
          "name": "",
          "type": "string"
        }
      ],
      "payable": false,
      "stateMutability": "view",
      "type": "function"
    },
    {
      "constant": false,
      "inputs": [
        {
          "name": "name",
          "type": "string"
        },
        {
          "name": "category",
          "type": "string"
        },
        {
          "name": "location",
          "type": "string"
        }
      ],
      "name": "addServiceProvider",
      "outputs": [],
      "payable": true,
      "stateMutability": "payable",
      "type": "function"
    },
    {
      "constant": false,
      "inputs": [
        {
          "name": "name",
          "type": "string"
        }
      ],
      "name": "addCompany",
      "outputs": [],
      "payable": true,
      "stateMutability": "payable",
      "type": "function"
    },
    {
      "constant": false,
      "inputs": [
        {
          "name": "employeeAddress",
          "type": "address"
        },
        {
          "name": "name",
          "type": "string"
        },
        {
          "name": "homeCity",
          "type": "string"
        }
      ],
      "name": "addEmployee",
      "outputs": [],
      "payable": false,
      "stateMutability": "nonpayable",
      "type": "function"
    },
    {
      "anonymous": false,
      "inputs": [
        {
          "indexed": true,
          "name": "_from",
          "type": "address"
        },
        {
          "indexed": true,
          "name": "_to",
          "type": "address"
        },
        {
          "indexed": false,
          "name": "_value",
          "type": "uint256"
        }
      ],
      "name": "Transfer",
      "type": "event"
    },
    {
      "anonymous": false,
      "inputs": [
        {
          "indexed": true,
          "name": "_owner",
          "type": "address"
        },
        {
          "indexed": true,
          "name": "_spender",
          "type": "address"
        },
        {
          "indexed": false,
          "name": "_value",
          "type": "uint256"
        }
      ],
      "name": "Approval",
      "type": "event"
    },
    {
      "anonymous": false,
      "inputs": [
        {
          "indexed": true,
          "name": "companyAddress",
          "type": "address"
        },
        {
          "indexed": true,
          "name": "employeeAddress",
          "type": "address"
        },
        {
          "indexed": false,
          "name": "serviceProvider",
          "type": "address"
        },
        {
          "indexed": false,
          "name": "amount",
          "type": "uint256"
        },
        {
          "indexed": false,
          "name": "now",
          "type": "uint256"
        }
      ],
      "name": "_transfer",
      "type": "event"
    },
    {
      "anonymous": false,
      "inputs": [
        {
          "indexed": true,
          "name": "companyAddress",
          "type": "address"
        },
        {
          "indexed": true,
          "name": "employeeAddress",
          "type": "address"
        },
        {
          "indexed": false,
          "name": "budget",
          "type": "uint256"
        },
        {
          "indexed": false,
          "name": "city",
          "type": "string"
        },
        {
          "indexed": false,
          "name": "category",
          "type": "string"
        },
        {
          "indexed": false,
          "name": "startTime",
          "type": "uint256"
        },
        {
          "indexed": false,
          "name": "endTime",
          "type": "uint256"
        }
      ],
      "name": "claim",
      "type": "event"
    },
    {
      "constant": true,
      "inputs": [],
      "name": "totalSupply",
      "outputs": [
        {
          "name": "",
          "type": "uint256"
        }
      ],
      "payable": false,
      "stateMutability": "view",
      "type": "function"
    },
    {
      "constant": true,
      "inputs": [
        {
          "name": "_owner",
          "type": "address"
        }
      ],
      "name": "balanceOf",
      "outputs": [
        {
          "name": "balance",
          "type": "uint256"
        }
      ],
      "payable": false,
      "stateMutability": "view",
      "type": "function"
    },
    {
      "constant": false,
      "inputs": [
        {
          "name": "_to",
          "type": "address"
        },
        {
          "name": "_value",
          "type": "uint256"
        }
      ],
      "name": "transfer",
      "outputs": [
        {
          "name": "success",
          "type": "bool"
        }
      ],
      "payable": false,
      "stateMutability": "nonpayable",
      "type": "function"
    },
    {
      "constant": false,
      "inputs": [
        {
          "name": "_from",
          "type": "address"
        },
        {
          "name": "_to",
          "type": "address"
        },
        {
          "name": "_value",
          "type": "uint256"
        }
      ],
      "name": "transferFrom",
      "outputs": [
        {
          "name": "success",
          "type": "bool"
        }
      ],
      "payable": false,
      "stateMutability": "nonpayable",
      "type": "function"
    },
    {
      "constant": false,
      "inputs": [
        {
          "name": "_spender",
          "type": "address"
        },
        {
          "name": "_value",
          "type": "uint256"
        }
      ],
      "name": "approve",
      "outputs": [
        {
          "name": "success",
          "type": "bool"
        }
      ],
      "payable": false,
      "stateMutability": "nonpayable",
      "type": "function"
    },
    {
      "constant": true,
      "inputs": [
        {
          "name": "_owner",
          "type": "address"
        },
        {
          "name": "_spender",
          "type": "address"
        }
      ],
      "name": "allowance",
      "outputs": [
        {
          "name": "remaining",
          "type": "uint256"
        }
      ],
      "payable": false,
      "stateMutability": "view",
      "type": "function"
    }
  ],
  "bytecode": "0x608060405234801561001057600080fd5b506130ef806100206000396000f3fe6080604052600436106101295760003560e01c80633cf9e381116100ab57806395d89b411161006f57806395d89b4114610c16578063a9059cbb14610ca6578063c1d125e014610d19578063d6483d1714610f02578063dd62ed3e14610fbd578063e63a26151461104257610129565b80633cf9e381146107b65780634abefa361461095f5780634b42c9cd146109cb57806370a0823114610a2657806388ffb3e514610a8b57610129565b80632209f5f4116100f25780632209f5f4146103d557806323b872dd146105725780632444b20014610605578063313ce5671461060f5780633430afe51461064057610129565b8062e31b3b1461012e578063021fa6561461020c57806306fdde03146102a7578063095ea7b31461033757806318160ddd146103aa575b600080fd5b34801561013a57600080fd5b5061017d6004803603602081101561015157600080fd5b81019080803573ffffffffffffffffffffffffffffffffffffffff1690602001909291905050506111c1565b604051808460ff1660ff16815260200183815260200180602001828103825283818151815260200191508051906020019080838360005b838110156101cf5780820151818401526020810190506101b4565b50505050905090810190601f1680156101fc5780820380516001836020036101000a031916815260200191505b5094505050505060405180910390f35b34801561021857600080fd5b506102656004803603604081101561022f57600080fd5b81019080803573ffffffffffffffffffffffffffffffffffffffff16906020019092919080359060200190929190505050611290565b604051808273ffffffffffffffffffffffffffffffffffffffff1673ffffffffffffffffffffffffffffffffffffffff16815260200191505060405180910390f35b3480156102b357600080fd5b506102bc6112db565b6040518080602001828103825283818151815260200191508051906020019080838360005b838110156102fc5780820151818401526020810190506102e1565b50505050905090810190601f1680156103295780820380516001836020036101000a031916815260200191505b509250505060405180910390f35b34801561034357600080fd5b506103906004803603604081101561035a57600080fd5b81019080803573ffffffffffffffffffffffffffffffffffffffff16906020019092919080359060200190929190505050611314565b604051808215151515815260200191505060405180910390f35b3480156103b657600080fd5b506103bf611385565b6040518082815260200191505060405180910390f35b3480156103e157600080fd5b50610570600480360360c08110156103f857600080fd5b81019080803573ffffffffffffffffffffffffffffffffffffffff1690602001909291908035906020019064010000000081111561043557600080fd5b82018360208201111561044757600080fd5b8035906020019184600183028401116401000000008311171561046957600080fd5b91908080601f016020809104026020016040519081016040528093929190818152602001838380828437600081840152601f19601f820116905080830192505050505050509192919290803590602001909291908035906020019092919080359060200190929190803590602001906401000000008111156104ea57600080fd5b8201836020820111156104fc57600080fd5b8035906020019184600183028401116401000000008311171561051e57600080fd5b91908080601f016020809104026020016040519081016040528093929190818152602001838380828437600081840152601f19601f8201169050808301925050505050505091929192905050506113a4565b005b34801561057e57600080fd5b506105eb6004803603606081101561059557600080fd5b81019080803573ffffffffffffffffffffffffffffffffffffffff169060200190929190803573ffffffffffffffffffffffffffffffffffffffff16906020019092919080359060200190929190505050611712565b604051808215151515815260200191505060405180910390f35b61060d6117c6565b005b34801561061b57600080fd5b5061062461186c565b604051808260ff1660ff16815260200191505060405180910390f35b34801561064c57600080fd5b5061068f6004803603602081101561066357600080fd5b81019080803573ffffffffffffffffffffffffffffffffffffffff169060200190929190505050611871565b604051808560ff1660ff16815260200180602001806020018473ffffffffffffffffffffffffffffffffffffffff1673ffffffffffffffffffffffffffffffffffffffff168152602001838103835286818151815260200191508051906020019080838360005b838110156107115780820151818401526020810190506106f6565b50505050905090810190601f16801561073e5780820380516001836020036101000a031916815260200191505b50838103825285818151815260200191508051906020019080838360005b8381101561077757808201518184015260208101905061075c565b50505050905090810190601f1680156107a45780820380516001836020036101000a031916815260200191505b50965050505050505060405180910390f35b3480156107c257600080fd5b50610805600480360360208110156107d957600080fd5b81019080803573ffffffffffffffffffffffffffffffffffffffff1690602001909291905050506119fe565b60405180858152602001806020018060200180602001848103845287818151815260200191508051906020019080838360005b83811015610853578082015181840152602081019050610838565b50505050905090810190601f1680156108805780820380516001836020036101000a031916815260200191505b50848103835286818151815260200191508051906020019080838360005b838110156108b957808201518184015260208101905061089e565b50505050905090810190601f1680156108e65780820380516001836020036101000a031916815260200191505b50848103825285818151815260200191508051906020019080838360005b8381101561091f578082015181840152602081019050610904565b50505050905090810190601f16801561094c5780820380516001836020036101000a031916815260200191505b5097505050505050505060405180910390f35b34801561096b57600080fd5b50610974611bf6565b6040518080602001828103825283818151815260200191508051906020019060200280838360005b838110156109b757808201518184015260208101905061099c565b505050509050019250505060405180910390f35b3480156109d757600080fd5b50610a24600480360360408110156109ee57600080fd5b81019080803573ffffffffffffffffffffffffffffffffffffffff16906020019092919080359060200190929190505050611cc1565b005b348015610a3257600080fd5b50610a7560048036036020811015610a4957600080fd5b81019080803573ffffffffffffffffffffffffffffffffffffffff169060200190929190505050612772565b6040518082815260200191505060405180910390f35b348015610a9757600080fd5b50610ada60048036036020811015610aae57600080fd5b81019080803573ffffffffffffffffffffffffffffffffffffffff16906020019092919050505061281d565b604051808860ff1660ff1681526020018773ffffffffffffffffffffffffffffffffffffffff1673ffffffffffffffffffffffffffffffffffffffff1681526020018681526020018060200180602001858152602001848152602001838103835287818151815260200191508051906020019080838360005b83811015610b6e578082015181840152602081019050610b53565b50505050905090810190601f168015610b9b5780820380516001836020036101000a031916815260200191505b50838103825286818151815260200191508051906020019080838360005b83811015610bd4578082015181840152602081019050610bb9565b50505050905090810190601f168015610c015780820380516001836020036101000a031916815260200191505b50995050505050505050505060405180910390f35b348015610c2257600080fd5b50610c2b6129bc565b6040518080602001828103825283818151815260200191508051906020019080838360005b83811015610c6b578082015181840152602081019050610c50565b50505050905090810190601f168015610c985780820380516001836020036101000a031916815260200191505b509250505060405180910390f35b348015610cb257600080fd5b50610cff60048036036040811015610cc957600080fd5b81019080803573ffffffffffffffffffffffffffffffffffffffff169060200190929190803590602001909291905050506129f5565b604051808215151515815260200191505060405180910390f35b610f0060048036036060811015610d2f57600080fd5b8101908080359060200190640100000000811115610d4c57600080fd5b820183602082011115610d5e57600080fd5b80359060200191846001830284011164010000000083111715610d8057600080fd5b91908080601f016020809104026020016040519081016040528093929190818152602001838380828437600081840152601f19601f82011690508083019250505050505050919291929080359060200190640100000000811115610de357600080fd5b820183602082011115610df557600080fd5b80359060200191846001830284011164010000000083111715610e1757600080fd5b91908080601f016020809104026020016040519081016040528093929190818152602001838380828437600081840152601f19601f82011690508083019250505050505050919291929080359060200190640100000000811115610e7a57600080fd5b820183602082011115610e8c57600080fd5b80359060200191846001830284011164010000000083111715610eae57600080fd5b91908080601f016020809104026020016040519081016040528093929190818152602001838380828437600081840152601f19601f820116905080830192505050505050509192919290505050612a70565b005b610fbb60048036036020811015610f1857600080fd5b8101908080359060200190640100000000811115610f3557600080fd5b820183602082011115610f4757600080fd5b80359060200191846001830284011164010000000083111715610f6957600080fd5b91908080601f016020809104026020016040519081016040528093929190818152602001838380828437600081840152601f19601f820116905080830192505050505050509192919290505050612b46565b005b348015610fc957600080fd5b5061102c60048036036040811015610fe057600080fd5b81019080803573ffffffffffffffffffffffffffffffffffffffff169060200190929190803573ffffffffffffffffffffffffffffffffffffffff169060200190929190505050612bfd565b6040518082815260200191505060405180910390f35b34801561104e57600080fd5b506111bf6004803603606081101561106557600080fd5b81019080803573ffffffffffffffffffffffffffffffffffffffff169060200190929190803590602001906401000000008111156110a257600080fd5b8201836020820111156110b457600080fd5b803590602001918460018302840111640100000000831117156110d657600080fd5b91908080601f016020809104026020016040519081016040528093929190818152602001838380828437600081840152601f19601f8201169050808301925050505050505091929192908035906020019064010000000081111561113957600080fd5b82018360208201111561114b57600080fd5b8035906020019184600183028401116401000000008311171561116d57600080fd5b91908080601f016020809104026020016040519081016040528093929190818152602001838380828437600081840152601f19601f820116905080830192505050505050509192919290505050612c08565b005b60006020528060005260406000206000915090508060000160009054906101000a900460ff1690806001015490806002018054600181600116156101000203166002900480601f0160208091040260200160405190810160405280929190818152602001828054600181600116156101000203166002900480156112865780601f1061125b57610100808354040283529160200191611286565b820191906000526020600020905b81548152906001019060200180831161126957829003601f168201915b5050505050905083565b600260205281600052604060002081815481106112a957fe5b906000526020600020016000915091509054906101000a900473ffffffffffffffffffffffffffffffffffffffff1681565b6040518060400160405280600781526020017f455243323043540000000000000000000000000000000000000000000000000081525081565b60008273ffffffffffffffffffffffffffffffffffffffff163373ffffffffffffffffffffffffffffffffffffffff167f8c5be1e5ebec7d5bd14f71427d1e84f3dd0314c0f7b2291e5b200ac8c7c3b925846040518082815260200191505060405180910390a36000905092915050565b60003073ffffffffffffffffffffffffffffffffffffffff1631905090565b60016000803373ffffffffffffffffffffffffffffffffffffffff1673ffffffffffffffffffffffffffffffffffffffff16815260200190815260200160002060000160009054906101000a900460ff1660ff161461140257600080fd5b60018060008873ffffffffffffffffffffffffffffffffffffffff1673ffffffffffffffffffffffffffffffffffffffff16815260200190815260200160002060000160009054906101000a900460ff1660ff161461146057600080fd5b8573ffffffffffffffffffffffffffffffffffffffff163373ffffffffffffffffffffffffffffffffffffffff167fe2df7383e4ddca8f0a8f5807b0d38feb1543b1a7730958787f4ced747cd289918688858888604051808681526020018060200180602001858152602001848152602001838103835287818151815260200191508051906020019080838360005b8381101561150a5780820151818401526020810190506114ef565b50505050905090810190601f1680156115375780820380516001836020036101000a031916815260200191505b50838103825286818151815260200191508051906020019080838360005b83811015611570578082015181840152602081019050611555565b50505050905090810190601f16801561159d5780820380516001836020036101000a031916815260200191505b5097505050505050505060405180910390a36115b7612f3b565b6040518060e00160405280600160ff1681526020013373ffffffffffffffffffffffffffffffffffffffff16815260200186815260200187815260200183815260200185815260200184815250905080600460008973ffffffffffffffffffffffffffffffffffffffff1673ffffffffffffffffffffffffffffffffffffffff16815260200190815260200160002060008201518160000160006101000a81548160ff021916908360ff16021790555060208201518160000160016101000a81548173ffffffffffffffffffffffffffffffffffffffff021916908373ffffffffffffffffffffffffffffffffffffffff1602179055506040820151816001015560608201518160020190805190602001906116d4929190612f91565b5060808201518160030190805190602001906116f1929190612f91565b5060a0820151816004015560c0820151816005015590505050505050505050565b60008373ffffffffffffffffffffffffffffffffffffffff163373ffffffffffffffffffffffffffffffffffffffff161461174c57600080fd5b6117568383611cc1565b8273ffffffffffffffffffffffffffffffffffffffff163373ffffffffffffffffffffffffffffffffffffffff167fddf252ad1be2c89b69c2b068fc378daa952ba7f163c4a11628f55a4df523b3ef846040518082815260200191505060405180910390a3600190509392505050565b60016000803373ffffffffffffffffffffffffffffffffffffffff1673ffffffffffffffffffffffffffffffffffffffff16815260200190815260200160002060000160009054906101000a900460ff1660ff161461182457600080fd5b346000803373ffffffffffffffffffffffffffffffffffffffff1673ffffffffffffffffffffffffffffffffffffffff16815260200190815260200160002060010181905550565b601281565b60016020528060005260406000206000915090508060000160009054906101000a900460ff1690806001018054600181600116156101000203166002900480601f0160208091040260200160405190810160405280929190818152602001828054600181600116156101000203166002900480156119305780601f1061190557610100808354040283529160200191611930565b820191906000526020600020905b81548152906001019060200180831161191357829003601f168201915b505050505090806002018054600181600116156101000203166002900480601f0160208091040260200160405190810160405280929190818152602001828054600181600116156101000203166002900480156119ce5780601f106119a3576101008083540402835291602001916119ce565b820191906000526020600020905b8154815290600101906020018083116119b157829003601f168201915b5050505050908060030160009054906101000a900473ffffffffffffffffffffffffffffffffffffffff16905084565b6003602052806000526040600020600091509050806000015490806001018054600181600116156101000203166002900480601f016020809104026020016040519081016040528092919081815260200182805460018160011615610100020316600290048015611ab05780601f10611a8557610100808354040283529160200191611ab0565b820191906000526020600020905b815481529060010190602001808311611a9357829003601f168201915b505050505090806002018054600181600116156101000203166002900480601f016020809104026020016040519081016040528092919081815260200182805460018160011615610100020316600290048015611b4e5780601f10611b2357610100808354040283529160200191611b4e565b820191906000526020600020905b815481529060010190602001808311611b3157829003601f168201915b505050505090806003018054600181600116156101000203166002900480601f016020809104026020016040519081016040528092919081815260200182805460018160011615610100020316600290048015611bec5780601f10611bc157610100808354040283529160200191611bec565b820191906000526020600020905b815481529060010190602001808311611bcf57829003601f168201915b5050505050905084565b6060600260003373ffffffffffffffffffffffffffffffffffffffff1673ffffffffffffffffffffffffffffffffffffffff168152602001908152602001600020805480602002602001604051908101604052809291908181526020018280548015611cb757602002820191906000526020600020905b8160009054906101000a900473ffffffffffffffffffffffffffffffffffffffff1673ffffffffffffffffffffffffffffffffffffffff1681526020019060010190808311611c6d575b5050505050905090565b6001600460003373ffffffffffffffffffffffffffffffffffffffff1673ffffffffffffffffffffffffffffffffffffffff16815260200190815260200160002060000160009054906101000a900460ff1660ff1614611d89576040517f08c379a00000000000000000000000000000000000000000000000000000000081526004018080602001828103825260148152602001807f436c61696d20646f6573206e6f7420657869737400000000000000000000000081525060200191505060405180910390fd5b611f47600460003373ffffffffffffffffffffffffffffffffffffffff1673ffffffffffffffffffffffffffffffffffffffff1681526020019081526020016000206003018054600181600116156101000203166002900480601f016020809104026020016040519081016040528092919081815260200182805460018160011615610100020316600290048015611e625780601f10611e3757610100808354040283529160200191611e62565b820191906000526020600020905b815481529060010190602001808311611e4557829003601f168201915b5050505050600360008573ffffffffffffffffffffffffffffffffffffffff1673ffffffffffffffffffffffffffffffffffffffff1681526020019081526020016000206002018054600181600116156101000203166002900480601f016020809104026020016040519081016040528092919081815260200182805460018160011615610100020316600290048015611f3d5780601f10611f1257610100808354040283529160200191611f3d565b820191906000526020600020905b815481529060010190602001808311611f2057829003601f168201915b5050505050612e39565b611f5057600080fd5b42600460003373ffffffffffffffffffffffffffffffffffffffff1673ffffffffffffffffffffffffffffffffffffffff16815260200190815260200160002060040154108015611fe2575042600460003373ffffffffffffffffffffffffffffffffffffffff1673ffffffffffffffffffffffffffffffffffffffff16815260200190815260200160002060050154115b612054576040517f08c379a000000000000000000000000000000000000000000000000000000000815260040180806020018281038252601b8152602001807f496e636f7272656374207374617274206f7220656e642074696d65000000000081525060200191505060405180910390fd5b6001600360008473ffffffffffffffffffffffffffffffffffffffff1673ffffffffffffffffffffffffffffffffffffffff168152602001908152602001600020600001541461210c576040517f08c379a000000000000000000000000000000000000000000000000000000000815260040180806020018281038252601f8152602001807f536572766963652070726f766964657220646f6573206e6f742065786973740081525060200191505060405180910390fd5b6122ca600460003373ffffffffffffffffffffffffffffffffffffffff1673ffffffffffffffffffffffffffffffffffffffff1681526020019081526020016000206002018054600181600116156101000203166002900480601f0160208091040260200160405190810160405280929190818152602001828054600181600116156101000203166002900480156121e55780601f106121ba576101008083540402835291602001916121e5565b820191906000526020600020905b8154815290600101906020018083116121c857829003601f168201915b5050505050600160003373ffffffffffffffffffffffffffffffffffffffff1673ffffffffffffffffffffffffffffffffffffffff1681526020019081526020016000206002018054600181600116156101000203166002900480601f0160208091040260200160405190810160405280929190818152602001828054600181600116156101000203166002900480156122c05780601f10612295576101008083540402835291602001916122c0565b820191906000526020600020905b8154815290600101906020018083116122a357829003601f168201915b5050505050612e39565b1561233d576040517f08c379a00000000000000000000000000000000000000000000000000000000081526004018080602001828103825260138152602001807f43697479206973206120686f6d6520636974790000000000000000000000000081525060200191505060405180910390fd5b6124fb600460003373ffffffffffffffffffffffffffffffffffffffff1673ffffffffffffffffffffffffffffffffffffffff1681526020019081526020016000206002018054600181600116156101000203166002900480601f0160208091040260200160405190810160405280929190818152602001828054600181600116156101000203166002900480156124165780601f106123eb57610100808354040283529160200191612416565b820191906000526020600020905b8154815290600101906020018083116123f957829003601f168201915b5050505050600360008573ffffffffffffffffffffffffffffffffffffffff1673ffffffffffffffffffffffffffffffffffffffff1681526020019081526020016000206003018054600181600116156101000203166002900480601f0160208091040260200160405190810160405280929190818152602001828054600181600116156101000203166002900480156124f15780601f106124c6576101008083540402835291602001916124f1565b820191906000526020600020905b8154815290600101906020018083116124d457829003601f168201915b5050505050612e39565b61256d576040517f08c379a00000000000000000000000000000000000000000000000000000000081526004018080602001828103825260138152602001807f43697479206973206e6f7420616c6c6f7765640000000000000000000000000081525060200191505060405180910390fd5b80600460003373ffffffffffffffffffffffffffffffffffffffff1673ffffffffffffffffffffffffffffffffffffffff1681526020019081526020016000206001015411612624576040517f08c379a000000000000000000000000000000000000000000000000000000000815260040180806020018281038252600e8152602001807f4f7665722062756467657420796f00000000000000000000000000000000000081525060200191505060405180910390fd5b3373ffffffffffffffffffffffffffffffffffffffff16600160003373ffffffffffffffffffffffffffffffffffffffff1673ffffffffffffffffffffffffffffffffffffffff16815260200190815260200160002060030160009054906101000a900473ffffffffffffffffffffffffffffffffffffffff1673ffffffffffffffffffffffffffffffffffffffff167fa36d0caeff2e4fbddbe8f6f234a483dfe6b19e7f9eb066409a95d379ee67e17c848442604051808473ffffffffffffffffffffffffffffffffffffffff1673ffffffffffffffffffffffffffffffffffffffff168152602001838152602001828152602001935050505060405180910390a38173ffffffffffffffffffffffffffffffffffffffff166108fc829081150290604051600060405180830381858888f1935050505015801561276d573d6000803e3d6000fd5b505050565b60006001600460008473ffffffffffffffffffffffffffffffffffffffff1673ffffffffffffffffffffffffffffffffffffffff16815260200190815260200160002060000160009054906101000a900460ff1660ff16146127d357600080fd5b600460008373ffffffffffffffffffffffffffffffffffffffff1673ffffffffffffffffffffffffffffffffffffffff168152602001908152602001600020600101549050919050565b60046020528060005260406000206000915090508060000160009054906101000a900460ff16908060000160019054906101000a900473ffffffffffffffffffffffffffffffffffffffff1690806001015490806002018054600181600116156101000203166002900480601f0160208091040260200160405190810160405280929190818152602001828054600181600116156101000203166002900480156129085780601f106128dd57610100808354040283529160200191612908565b820191906000526020600020905b8154815290600101906020018083116128eb57829003601f168201915b505050505090806003018054600181600116156101000203166002900480601f0160208091040260200160405190810160405280929190818152602001828054600181600116156101000203166002900480156129a65780601f1061297b576101008083540402835291602001916129a6565b820191906000526020600020905b81548152906001019060200180831161298957829003601f168201915b5050505050908060040154908060050154905087565b6040518060400160405280600281526020017f435400000000000000000000000000000000000000000000000000000000000081525081565b6000612a018383611cc1565b8273ffffffffffffffffffffffffffffffffffffffff163373ffffffffffffffffffffffffffffffffffffffff167fddf252ad1be2c89b69c2b068fc378daa952ba7f163c4a11628f55a4df523b3ef846040518082815260200191505060405180910390a36001905092915050565b612a78613011565b60405180608001604052806001815260200185815260200184815260200183815250905080600360003373ffffffffffffffffffffffffffffffffffffffff1673ffffffffffffffffffffffffffffffffffffffff168152602001908152602001600020600082015181600001556020820151816001019080519060200190612b02929190612f91565b506040820151816002019080519060200190612b1f929190612f91565b506060820151816003019080519060200190612b3c929190612f91565b5090505050505050565b612b4e613039565b6040518060600160405280600160ff168152602001348152602001838152509050806000803373ffffffffffffffffffffffffffffffffffffffff1673ffffffffffffffffffffffffffffffffffffffff16815260200190815260200160002060008201518160000160006101000a81548160ff021916908360ff160217905550602082015181600101556040820151816002019080519060200190612bf5929190612f91565b509050505050565b600080905092915050565b60016000803373ffffffffffffffffffffffffffffffffffffffff1673ffffffffffffffffffffffffffffffffffffffff16815260200190815260200160002060000160009054906101000a900460ff1660ff1614612c6657600080fd5b612c6e61305d565b6040518060800160405280600160ff1681526020018481526020018381526020013373ffffffffffffffffffffffffffffffffffffffff16815250905080600160008673ffffffffffffffffffffffffffffffffffffffff1673ffffffffffffffffffffffffffffffffffffffff16815260200190815260200160002060008201518160000160006101000a81548160ff021916908360ff1602179055506020820151816001019080519060200190612d28929190612f91565b506040820151816002019080519060200190612d45929190612f91565b5060608201518160030160006101000a81548173ffffffffffffffffffffffffffffffffffffffff021916908373ffffffffffffffffffffffffffffffffffffffff160217905550905050600260003373ffffffffffffffffffffffffffffffffffffffff1673ffffffffffffffffffffffffffffffffffffffff1681526020019081526020016000208490806001815401808255809150509060018203906000526020600020016000909192909190916101000a81548173ffffffffffffffffffffffffffffffffffffffff021916908373ffffffffffffffffffffffffffffffffffffffff1602179055505050505050565b60008151835114612e4d5760009050612f35565b816040516020018082805190602001908083835b60208310612e845780518252602082019150602081019050602083039250612e61565b6001836020036101000a03801982511681845116808217855250505050505090500191505060405160208183030381529060405280519060200120836040516020018082805190602001908083835b60208310612ef65780518252602082019150602081019050602083039250612ed3565b6001836020036101000a038019825116818451168082178552505050505050905001915050604051602081830303815290604052805190602001201490505b92915050565b6040518060e00160405280600060ff168152602001600073ffffffffffffffffffffffffffffffffffffffff16815260200160008152602001606081526020016060815260200160008152602001600081525090565b828054600181600116156101000203166002900490600052602060002090601f016020900481019282601f10612fd257805160ff1916838001178555613000565b82800160010185558215613000579182015b82811115612fff578251825591602001919060010190612fe4565b5b50905061300d919061309e565b5090565b6040518060800160405280600081526020016060815260200160608152602001606081525090565b6040518060600160405280600060ff16815260200160008152602001606081525090565b6040518060800160405280600060ff1681526020016060815260200160608152602001600073ffffffffffffffffffffffffffffffffffffffff1681525090565b6130c091905b808211156130bc5760008160009055506001016130a4565b5090565b9056fea165627a7a72305820b5272b34c11da15b7a3012713bf019e673ece81c14e6298806c1e90df42baaa60029",
  "source": "pragma solidity >=0.4.0 <0.7.0;\n\nimport \"./conditionalTokens.sol\";\n\ncontract erc20 is conditionalTokens{\n    event Transfer(address indexed _from, address indexed _to, uint256 _value);\n    event Approval(address indexed _owner, address indexed _spender, uint256 _value);\n\n    string public constant name = \"ERC20CT\";\n    string public constant symbol = \"CT\";\n    uint8 public constant decimals = 18;\n\n    function totalSupply() public view returns (uint256){\n        return address(this).balance;\n    }\n\n    function balanceOf(address _owner) public view returns (uint256 balance){\n        require(allClaims[_owner].exists==1);\n        return allClaims[_owner].budget;\n    }\n\n    function transfer(address _to, uint256 _value) public returns (bool success){\n        payServiceProvider(address(uint160(_to)), _value);\n        emit Transfer(msg.sender, _to, _value);\n        return true;\n    }\n\n    function transferFrom(address _from, address _to, uint256 _value) public returns (bool success){\n        require(msg.sender==_from);\n        payServiceProvider(address(uint160(_to)), _value);\n        emit Transfer(msg.sender, _to, _value);\n        return true;\n    }\n\n    function approve(address _spender, uint256 _value) public returns (bool success){\n        emit Approval(msg.sender, _spender, _value);\n        return false;\n    }\n\n    function allowance(address _owner, address _spender) public view returns (uint256 remaining){\n        return 0;\n    }\n\n}\n",
  "sourcePath": "/Users/shresthagrawal/Desktop/hackathon/JacobsHack/wallet/contracts/erc20.sol",
  "compiler": {
    "name": "solc",
    "version": "0.5.8+commit.23d335f2.Emscripten.clang"
  },
  "schemaVersion": "3.0.11",
  "updatedAt": "2019-11-09T11:28:45.979Z",
  "devdoc": {
    "methods": {}
  },
  "userdoc": {
    "methods": {}
  }
}